:020000040800F2
:10000000300500200101000879100008470F0008A2
:1000100075100008DD0A00087323000800000000C6
:10002000000000000000000000000000D5150008DE
:10003000E10A00080000000077130008E916000834
:100040001B0100081B0100081B0100081B01000820
:100050001B0100081B0100081B0100081B01000810
:100060001B0100081B0100081B0100081B01000800
:100070001B0100081B0100081B0100081B010008F0
:100080001B0100081B0100081B0100081B010008E0
:100090001B0100081B0100081B010008250B0008BC
:1000A0001B0100081B0100081B0100081B010008C0
:1000B000851B0008451C00081B0100081B010008E7
:1000C0001B0100081B0100081B0100081B010008A0
:1000D0001B010008812000081B0100082D210008D9
:1000E000E50A00081B0100081B010008DFF80CD01E
:1000F00000F064FB004800477D2E0008300500201A
:100100000648804706480047FEE7FEE7FEE7FEE7B1
:10011000FEE7FEE7FEE7FEE7FEE7FEE7ED16000876
:10012000ED000008D2B201E000F8012B491EFBD21D
:1001300070470022F6E710B513460A4604461946F2
:10014000FFF7F0FF204610BD80EA010210B502F073
:100150000043400022D04A001FD0010E01EB126183
:10016000C0F35600C2F3560240F4000042F400020D
:10017000A0FB022000047F39140400D0401C50EA88
:10018000124001D44000491EC2B20C0604EBD0104C
:10019000401C4008802A02D003E0002010BD20F05F
:1001A0000100002900DA0020184310BD2DE9FE4FA0
:1001B00081EA030404F0004421F0004100944FF070
:1001C000000B23F0004350EA01045ED052EA03041E
:1001D0005BD0C3F30A54C1F30A552C44A4F2F334A0
:1001E0000194A0FB0254C1F3130141F48011C3F345
:1001F000130343F4801301FB024400FB034E840A03
:10020000970A44EA815447EA8357A4FB076802959A
:100210008D0A05FB07854FEA932C04FB0C54270538
:10022000029D4FEA065847EA1637B5EB08056EEB14
:10023000070C870E920E47EA811742EA8312A7FB4A
:100240000201B6EB0B0164EB00042B0D43EA0C3307
:100250005E1844EB1C50DA465146E7FB0201C5F339
:1002600013044FEA0B3343EA14534FEA0432019C60
:1002700043EA0603A4F10C040294009CCDE900B407
:1002800000F076F903B0BDE8F08F00200146F9E7F1
:100290002DE9F04D81EA030404F0004B21F0004504
:1002A00014464FF0000A23F0004150EA050220D026
:1002B00054EA01021DD0C5F30A570246C5F31303E1
:1002C000C1F31300C1F30A5640F4801543F48013C0
:1002D000A7EB0608101BD64608F2FD3873EB0500A5
:1002E00002D308F1010801E092185B41B8F1000F58
:1002F00003DA00200146BDE8F08D00204FF48011A4
:10030000064684460EE0171B73EB050705D3121B48
:1003100063EB050306434CEA010C49084FEA300041
:1003200092185B4150EA0107EDD152EA030012D066
:1003300082EA040083EA0501084305D0101BAB41A3
:1003400006D20122002306E000224FF0004302E023
:100350006FF0010253101AEB06004CEB085110EB42
:100360000A0041EB0B01BDE8F04D00F0F2B8962316
:100370000022114600F0BFB80EB5C10F80EAE07050
:100380000844CA07002140F233438DE80E000A46B4
:100390000B4600F0EDF803B000BD70B5C1F30A5292
:1003A00001F000450024C1F3130140F2FF3341F492
:1003B00080119A4201DA002070BD40F233439A4224
:1003C000A2F2334203DC524200F07CF800E090409D
:1003D0002C43F1D0404270BD00F0004230F00040AC
:1003E0000AD0C10D01F56071C0F3160042EA015157
:1003F000C20840071143704700200146704701F0D2
:10040000004330B421F0004150EA010206D00A0D49
:10041000A2F56072C1F31301002A02DC30BC002097
:100420007047440F44EAC104C100E01830BC00EB3F
:10043000C25000F057B830B50B46014600202022CC
:10044000012409E021FA02F59D4205D303FA02F5E1
:10045000491B04FA02F52844151EA2F10102F1DC41
:1004600030BD2DE9F05F0546002092469B46884648
:100470000646814640241BE0284641464746224620
:1004800000F020F853465A46C01A914110D3114645
:100490001846224600F0A4F92D1A67EB01084F46D2
:1004A00022460120002100F09BF917EB00094E4184
:1004B000201EA4F10104DFDC484631462A464346AB
:1004C000BDE8F09F202A04DB203A21FA02F0002147
:1004D000704721FA02F3D040C2F120029140084354
:1004E000194670470029A8BF7047401C490008BF43
:1004F00020F00100704710B4B0FA80FC00FA0CF054
:1005000050EA010404BF10BC704749B1CCF120048B
:1005100021FA04F411FA0CF118BF01212143084318
:10052000A3EB0C01CB1D4FEA00614FEA102042BF44
:10053000002010BC704700EBC35010440029A4BF3A
:1005400010BC7047401C490008BF20F0010010BCDF
:10055000704710B5141E73F1000408DA401C41F115
:10056000000192185B411A4301D120F0010010BD37
:100570002DE9F04D92469B4611B1B1FA81F202E0AD
:10058000B0FA80F22032904600F02AF904460F4675
:1005900040EA0A0041EA0B0153465A46084313D089
:1005A000114653EA010019D0C8F140025046FFF746
:1005B00089FF05460E4650465946424600F010F95E
:1005C000084305D0012004E020463946BDE8F08DFF
:1005D0000020054346EAE0762C4337430A9863053A
:1005E000E40AA0EB08000022FD0A44EA47540A305E
:1005F00002D500200146E9E7010510196941DDE94E
:10060000084500196941BDE8F04DA2E72DE9FE4F0C
:10061000804681EA0300C00F0C46009021F00041A3
:1006200023F00045B8EB0200A94105D2404621461F
:1006300090461C460B46024623F00040104347D02C
:10064000270DC7F30A00C3F30A510290401A019024
:1006500040286BDAC3F3130040F4801B00989246E5
:1006600020B10023D2EB030A63EB0B0B0198594630
:10067000C0F14002504600F0B3F806460D46504621
:100680005946019A00F0BBF810EB080061410024C4
:1006900087EA115284EAE7731A4340D0009A62B3A2
:1006A000019A012A4FEA075215DC001B61EB020197
:1006B0004FF0004202EA0752CDE90042001C41F52A
:1006C000801132462B46FFF753FF03B0BDE8F08F91
:1006D00040462146F9E7001B61EB0201001C41F591
:1006E000801300185B412018A2F5001747EB0301A7
:1006F00040EAD570B6196D4111E06D084FEA360633
:1007000045EAC0754FEA0752001B61EB0201001C6D
:1007100041F5801149084FEA300000195141324635
:100720002B4603B0BDE8F04FFFF713BF009801223E
:1007300040000023D0EB020263EBE07300982146F7
:100740004FEAE074B8EB000061EB0401E9E783F0E5
:1007500000435BE781F0004158E7C1F30A52C1F35F
:10076000130140F2FF3341F480119A4202DA002073
:100770000146704740F233439A42A2F2334202DC10
:100780005242FFF79FBE00F02BB8000030B5041EA8
:1007900071F1000404DB4FF00044404264EB0101BE
:1007A000141E73F1000405DB1C464FF00043524257
:1007B00063EB0403994208BF904230BD064C074DDD
:1007C00006E0E06840F0010394E807009847103421
:1007D000AC42F6D3FFF78EFCCC3C0008EC3C0008A2
:1007E000202A04DB203A00FA02F1002070479140F1
:1007F000C2F1200320FA03F3194390407047202AE6
:1008000006DBCB17203A41FA02F043EAE07306E038
:1008100041FA02F3D040C2F1200291400843194648
:10082000704721B1826842F00102826003E0826871
:1008300022F001028260704710B5044612488442DB
:1008400008D10121401500F0C3FD0021601500F022
:10085000BFFD17E00D48844208D10121001500F0CA
:10086000B7FD0021201500F0B3FD0BE008488442DD
:1008700008D10121C80300F0ABFD00214FF4004076
:1008800000F0A6FD10BD000000240140002801403A
:10089000003C0140014600208A6802F004020AB1CF
:1008A000012000E0002070470146C86C80B270470C
:1008B0000246002013680B400BB1012000E000202D
:1008C0007047014600208A6802F008020AB1012040
:1008D00000E000207047000030B5024600200023F1
:1008E00050680F4C20400D790C6844EA05242043E1
:1008F000506090680B4C2040D1E902542C434D7954
:1009000044EA450420439060D06A20F470000C7CD7
:10091000641EE4B2234340EA0350D06230BD0000BD
:10092000FFFEF0FFFDF7F1FFF0B504460D46002095
:100930000021092D11DDE068A5F10A0606EB460746
:10094000072606FA07F18843A5F10A0606EB4606D4
:1009500003FA06F10843E0600CE0206905EB450767
:10096000072606FA07F1884305EB450603FA06F168
:1009700008432061072A0FDA606B561E06EB8607D4
:100980001F2606FA07F18843561E06EB860605FA6F
:1009900006F10843606322E00D2A0FDA206BD61FB0
:1009A00006EB86071F2606FA07F18843D61F06EBDB
:1009B000860605FA06F10843206310E0E06AA2F11A
:1009C0000D0606EB86071F2606FA07F18843A2F1FB
:1009D0000D0606EB860605FA06F10843E062F0BD57
:1009E000816841F008018160704721B1826842F45A
:1009F000A002826003E0826822F4A0028260704755
:100A0000816841F0040181607047000000B587B043
:100A100001214FF4017000F0CBFC4FF4004000F0D6
:100A2000ABFC1020ADF8040000208DF8070001A9F0
:100A3000174800F075F91748FFF7FEFE00200290F6
:100A40008DF80C008DF80D004FF46020049000200C
:100A5000059001208DF8180002A90E48FFF73CFF11
:100A600001210C48FFF7DDFE0A48FFF7B9FF00BF80
:100A70000848FFF726FF0028FAD10648FFF7C0FF15
:100A800000BF0448FFF706FF0028FAD107B000BDF9
:100A9000000801400024014010B500200C49086006
:100AA00001200C49C1F8B001002009493039086023
:100AB00001200849C1F8800140F2DC51064801F0EC
:100AC0005AFA40F2DC51044801F057FA10BD000018
:100AD000B481214200802142002C014000BFFEE78A
:100AE0007047000010B50A2002F07CF94FF48051E5
:100AF000094800F0E9F950B90020084908600848A1
:100B0000006808B9012000E00020054908604FF4A2
:100B1000805000F073F810BD00080140080000206C
:100B2000B401224210B50A2002F05CF980210F487E
:100B300000F0CAF9012814D10D480068042803D137
:100B400001200B49086004E009480068401C08497E
:100B500008600848006808B9012000E00020054945
:100B60000860802000F04AF810BD00000008014035
:100B700008000020B40122420EB500F021FA012144
:100B8000084600F015FC0C21002000F0A9F84FF4F5
:100B90008050019000208DF808000C208DF809008D
:100BA00001A800F031F80721002000F099F880201A
:100BB000019008208DF8090001A800F025F8172001
:100BC0008DF8000002208DF8010003208DF802004E
:100BD00001208DF80300684600F050FA28208DF8B7
:100BE000000002208DF8010001208DF802008DF830
:100BF0000300684600F042FA0EBD0000014908609B
:100C00007047000014040140002123498279002A22
:100C10003AD00A46126803689A430B461A600A1DC6
:100C2000126803689A430B1D1A60027911440A681E
:100C300003681A430A60184A0832126803689A4324
:100C4000154B08331A601A1D126803689A43124B39
:100C50000C331A604279102A0ED11A1F12680368E9
:100C60001A430D4B08331A601A1D126803681A43A1
:100C7000094B0C331A600DE00749427911440A68A8
:100C800003681A430A6005E0027911440A680368A0
:100C90009A430A60704700000004014010B501202B
:100CA0000C49086000200C49C1F8B0010120094935
:100CB0003039086000200849C1F8800140F2DC5159
:100CC000064801F058F940F2DC51044801F055F9AA
:100CD00010BD0000B481214200802142002C01405F
:100CE00030B500228B071C0F0F2303FA04F20B4BC5
:100CF0008C1053F824309343084C8D1044F8253061
:100D000023468C1053F824308C07240F00FA04F487
:100D10002343024C8D1044F8253030BD08000140BB
:100D20002DE9F04102460025002600200023002482
:100D3000002791F803C00CF00F0591F803C00CF0E8
:100D4000100CBCF1000F03D091F802C04CEA05056D
:100D500091F800C0BCF1000F31D0146800202BE0E6
:100D60004FF0010C0CFA00F3B1F800C00CEA0306D6
:100D70009E4220D183004FF00F0C0CFA03F7BC43C6
:100D800005FA03FC4CEA040491F803C0BCF1280FF7
:100D900006D14FF0010C0CFA00FCC2F814C00AE0B6
:100DA00091F803C0BCF1480F05D14FF0010C0CFACB
:100DB00000FCC2F810C0401C0828D1D31460B1F860
:100DC00000C0BCF1FF0F34DD546800202EE000F1BC
:100DD000080C4FF0010808FA0CF3B1F800C00CEA57
:100DE00003069E4221D183004FF00F0C0CFA03F74B
:100DF000BC4305FA03FC4CEA040491F803C0BCF1BF
:100E0000280F05D100F1080C08FA0CF8C2F814807C
:100E100091F803C0BCF1480F07D100F1080C4FF066
:100E2000010808FA0CF8C2F81080401C0828CED33C
:100E30005460BDE8F0810000F0B50A4600230024AC
:100E40000021002500F00046B6F1004F02D11D4EF2
:100E5000F16901E01B4E7168C0F3034583B200F4F1
:100E60004016B6F5401F08D121F07061154E766826
:100E700026F07066134F7E6012E000F48016B6F51F
:100E8000801F06D1032606FA05F4A14341F07061E4
:100E900006E0460D360103FA06F6B14341F07061F3
:100EA00022B1460D360103FA06F6314300F0004642
:100EB000B6F1004F02D1034EF16101E0014E7160C5
:100EC000F0BD0000000001400246002093680B4086
:100ED0000BB1012000E000207047416170470161C3
:100EE0007047000010B50446072301222146094837
:100EF000FFF71AFD01210748FFF777FD00BF022128
:100F00000448FFF7D5FC0028F9D00248FFF7CCFCD5
:100F100010BD0000002401402DE9F04107460C46B9
:100F20000025002608E03846FFF7DCFF05440520D1
:100F300001F058FF701CC6B2A642F4DBB5FBF4F01A
:100F400080B2BDE8F08100BFFEE7000010B54FF4AD
:100F500080410948FFF7C3FF4FF400410648FFF7FF
:100F6000BEFF4FF400410448FFF7B7FF4FF4804144
:100F70000148FFF7B2FF10BD0010014010B54FF45B
:100F800080410748FFF7ABFF4FF400410448FFF7EB
:100F9000A4FF4FF400410248FFF7A1FF10BD00007D
:100FA0000010014010B54FF480410448FFF797FF4F
:100FB0004FF480410148FFF790FF10BD0010014041
:100FC00008B50121042000F0F3F94FF48050ADF88A
:100FD000000048208DF8030069460748FFF7A0FE8F
:100FE0008020ADF8000028208DF8030069460248F3
:100FF000FFF796FE08BD00000008014008B501217A
:10100000582000F0D5F94FF40050ADF80000102042
:101010008DF8030003208DF8020069460448FFF7AD
:101020007FFE4FF400510248FFF759FF08BD000052
:101030000010014010B500200B49086001200B4949
:10104000C1F8B00108493039086000200749C1F8EB
:10105000800140F2DC51064800F08DFF40F2DC5187
:10106000034800F08AFF10BDB48121420080214274
:10107000002C014000BFFEE77047000070B5002162
:1010800000230F22C47804B3154C246804F4E064F0
:10109000C4F5E064210AC1F10403CA40447804FAAB
:1010A00003F184781440214309010E4C0678A155C0
:1010B000047804F01F050124AC4005786D11AD00E3
:1010C00005F1E025C5F8004109E0047804F01F05AA
:1010D0000124AC40044D0678761145F8264070BDD9
:1010E0000CED00E000E400E080E100E00249014393
:1010F000024A1160704700000000FA050CED00E0A4
:1011000070B5002418E004F1B000002100F027F9C8
:101110000021084600F023F90021102000F01FF9FB
:10112000002505E00121002000F019F9681CC5B276
:10113000802DF7DB601CC4B2082CE4DB70BD00001E
:1011400008B50121102000F033F94FF44040ADF80C
:10115000000010208DF8030003208DF8020069467E
:101160003C48FFF7DDFD4FF440413A48FFF7B7FE3A
:101170004FF4487001F036FE0021AE2000F0EFF889
:101180000021084600F0EBF80021102000F0E7F8FD
:101190000021402000F0E3F80021B02000F0DFF84B
:1011A0000021812000F0DBF80021FF2000F0D7F8BB
:1011B0000021A12000F0D3F80021A62000F0CFF8F4
:1011C0000021A82000F0CBF800213F2000F0C7F854
:1011D0000021C82000F0C3F80021D32000F0BFF8A0
:1011E0000021084600F0BBF80021D52000F0B7F838
:1011F0000021802000F0B3F80021D82000F0AFF8E3
:101200000021052000F0ABF80021D92000F0A7F85C
:101210000021F12000F0A3F80021DA2000F09FF86F
:101220000021122000F09BF80021DB2000F097F84D
:101230000021302000F093F800218D2000F08FF87D
:101240000021142000F08BF80021AF2000F087F877
:1012500008BD00000010014070B504460D4605F1C0
:10126000B000002100F07BF8102141EA14100021A9
:1012700000F075F804F00F00002100F070F870BD68
:101280002DE9F04707460E46904699460025002472
:10129000A8F12000C5B27F2F02DD0027B01CC6B226
:1012A000B9F1100F24D131463846FFF7D5FF00249D
:1012B00008E004EB0511194A505C012100F04FF8D9
:1012C000601CC4B2082CF4DB701CC1B23846FFF7B6
:1012D000C3FF002409E004EB051108310F4A505CFC
:1012E000012100F03CF8601CC4B2082CF3DB12E0D2
:1012F00031463846FFF7B0FF00240AE005EB450110
:10130000074A02EB4101085D012100F028F8601C4A
:10131000C4B2062CF2DBBDE8F0870000DC36000822
:10132000B43400082DE9F04104460F4615469846AE
:1013300000260FE0AA5D434639462046FFF7A0FF8E
:1013400004F10800C4B2782C02DD0024B81CC7B236
:10135000701CC6B2A85D0028ECD1BDE8F08170B564
:1013600004460D461DB1E0B201F070F802E0E0B2B3
:1013700001F056F870BD704701460020034A5068DE
:1013800020F44040084350607047000000100240C5
:1013900029B1064AD2690243044BDA6104E0034AE8
:1013A000D2698243014BDA617047000000100240AD
:1013B00029B1064A92690243044B9A6104E0034A48
:1013C00092698243014B9A6170470000001002400D
:1013D00029B1064AD2680243044BDA6004E0034AAA
:1013E000D2688243014BDA6070470000001002406F
:1013F00030B500210022002400232D4D6D6805F03A
:101400000C0121B1042905D0082923D105E0294D7B
:10141000056022E0274D05601FE0254D6D6805F44D
:101420007012234D6D6805F48034022505EB92425D
:101430001CB9214D554305600BE01D4D6D6805F449
:1014400000351DB11C4D5543056002E0194D554353
:10145000056002E0174D056000BF00BF144D6D68C8
:1014600005F0F0010909154D6B5C0568DD4045602C
:101470000F4D6D6805F4E061090A104D6B5C45681D
:10148000DD4085600A4D6D6805F46051C90A0B4D59
:101490006B5C4568DD40C560054D6D6805F44041F5
:1014A000890B074D6B5CC568B5FBF3F5056130BD75
:1014B0000010024000127A0000093D003A000020AE
:1014C0004A00002010B501200B49086000200B499C
:1014D000C1F8B00108493039086001200749C1F856
:1014E000800140F2DC51064800F045FD40F2DC513D
:1014F000034800F042FD10BDB4812142008021422A
:10150000002C01402DE9F04701201D4908600D2005
:1015100001F08EFC00201B49C1F880011A480078B8
:1015200000F0800038B31848007800F03F001749F9
:1015300008600846008800040860084600681449EE
:10154000098808441149086008460068FEF714FF3E
:101550000646104A104BFEF729FE044600224FF0C3
:101560008043FEF795FE8046FEF717FF0B490860A3
:1015700000200549087009480068BDE8F0870000B0
:1015800080012142000021422C0000201000002098
:101590002E0000204C37894160E5A03F1400002058
:1015A00008B501210420FFF703FF0120ADF800007A
:1015B00010208DF8030003208DF8020069460448CE
:1015C000FFF7AEFB01210248FFF789FC08BD0000D0
:1015D00000080140704710B500F002F810BD00008F
:1015E0000CB50020019000903348006840F4803032
:1015F0003149086000BF3048006800F400300090B6
:101600000198401C0190009818B90198B0F5A06F9E
:10161000F1D12948006800F4003010B10120009099
:1016200001E0002000900098012843D12348006881
:1016300040F01000214908600846006820F00300CF
:1016400008600846006840F0020008601A484068D8
:10165000194948600846406848600846406840F4B8
:10166000806048600846406820F47C104860084666
:10167000406840F4E81048600846006840F0807018
:10168000086000BF0C48006800F000700028F9D026
:101690000948406820F00300074948600846406850
:1016A00040F00200486000BF0348406800F00C00B2
:1016B0000828F9D10CBD00000010024000200240B3
:1016C000042808D14FF0E021096941F004014FF0EE
:1016D000E022116107E04FF0E021096921F00401E7
:1016E0004FF0E022116170477047000010B51348B9
:1016F000006840F001001149086008464068104940
:1017000008400E494860084600680E4908400B49E9
:1017100008600846006820F4802008600846406899
:1017200020F4FE0048604FF41F008860FFF753FF6D
:101730004FF000600449086010BD00000010024036
:101740000000FFF8FFFFF6FE08ED00E008B50121FC
:101750000820FFF72DFE43F20300ADF80000102033
:101760008DF8030003208DF8020069460448FFF756
:10177000D7FA43F203010248FFF7B1FB08BD0000AE
:10178000000C014008B501210C20FFF711FE0121DA
:101790000C48FFF751FB3820ADF8000028208DF8E9
:1017A000030069460848FFF7BBFA4FF40040ADF864
:1017B000000028208DF8030069460448FFF7B0FABE
:1017C00008BD000000023000000C0140000801408C
:1017D000F0B50C46154600220021068C4FF6FE7728
:1017E0003E400684028B018C4FF60C7632407E1C04
:1017F00006EA03162E433243104EB0420ED0104E6E
:10180000B0420BD0B0F1804F08D00E4EB04205D0A0
:101810000D4EB04202D00D4EB04206D14FF6FD76CD
:10182000314044F00106314305E04FF6F576314092
:1018300044F00106314302830184F0BD002C0140D5
:10184000003401400004004000080040000C00404B
:10185000F0B50C461546002200210026078C4FF6F5
:10186000EF7C07EA0C070784028B018C4FF6FF77A9
:1018700007EA041640F6FF473A404FF6FF7707EABB
:1018800003373A434FF6FF7707EA05273A43114FEC
:10189000B8420ED0104FB8420BD0B0F1804F08D0F4
:1018A0000E4FB84205D00E4FB84202D00D4FB8428D
:1018B00006D14FF6DF77394046F01007394305E08F
:1018C0004FF65F77394044F01007394302830184B3
:1018D000F0BD0000002C0140003401400004004035
:1018E00000080040000C0040F0B50C4615460022F0
:1018F00000210026078C4FF6FF6C07EA0C070784CF
:10190000828B018C4FF6FF7707EA04264FF60C779F
:101910003A404FF6FF7707EA03172F433A43114F38
:10192000B8420ED0104FB8420BD0B0F1804F08D063
:101930000E4FB84205D00E4FB84202D00D4FB842FC
:1019400006D14FF6FF57394046F48077394305E01A
:101950004FF2FF57394044F4807739438283018442
:10196000F0BD0000002C01400034014000040040A4
:1019700000080040000C0040F0B50C46154600225F
:1019800000210026078C4EF6FF7C07EA0C0707842F
:10199000828B018C4FF6FF7707EA043640F6FF474B
:1019A0003A404FF6FF7707EA05273A434FF6FF77AD
:1019B00007EA03373A43114FB8420ED0104FB842EE
:1019C0000BD0B0F1804F08D00E4FB84205D00E4F6B
:1019D000B84202D00D4FB84206D14DF6FF773940DC
:1019E00046F48057394305E047F6FF57394044F441
:1019F0008057394382830184F0BD0000002C0140F0
:101A0000003401400004004000080040000C004089
:101A100030B589B005460C460121C802FFF7C8FC65
:101A200001210520FFF7C4FC4FF40060ADF8200051
:101A300018208DF8230003208DF8220008A92548DE
:101A4000FFF76EF94FF48070ADF8200018208DF884
:101A5000230003208DF8220008A91E48FFF760F933
:101A6000ADF81850ADF814400020ADF81A00ADF8EC
:101A7000160005A9184800F0B1FA7020ADF804006E
:101A80000120ADF806000020ADF80C0001A91248B5
:101A900000F0C4F90821104800F00CFA7020ADF8ED
:101AA00004000120ADF806000020ADF80C0001A9EB
:101AB000094800F015FA0821074800F04FFA012103
:101AC000054800F01CF90121034800F024F909B091
:101AD00030BD000000080140002C014030B585B049
:101AE00005460C4601210846FFF752FC012104205F
:101AF000FFF75EFC0220ADF8100028208DF81300DF
:101B000004A91E48FFF70CF902211C48FFF7E5F96C
:101B1000ADF80850ADF804400020ADF80A00ADF86B
:101B2000060001A94FF0804000F058FA0420144943
:101B3000088000204880012088800020C88008811B
:101B40004FF0804000F00AF91C208DF800000220C0
:101B50008DF8010000208DF8020001208DF80300AF
:101B60006846FFF78BFA01220521880700F04CF93F
:101B70000121880700F0C3F805B030BD000801401E
:101B80005A00002010B52D48007800F08000002891
:101B90004FD10121880700F0D0F8D0B12748007854
:101BA00000F04000A8B12548007800F03F003F2831
:101BB0000AD12248007840F08000204908704FF692
:101BC000FF701F49088004E01C480078401C1B4936
:101BD00008700421080700F0B0F850B317480078E7
:101BE00000F0400088B11548007840F080001349AB
:101BF00008704FF0804000F09DF8114908800021E6
:101C00004FF0804000F05FF913E000200B490870AE
:101C10000B49088000214FF0804000F0B1F90748DF
:101C2000007840F04000054908700221480700F0A4
:101C30004AF90521880700F05FF810BD2C0000204C
:101C40002E00002010B50121084800F076F858B1A8
:101C50000121064800F050F80548006808B9012045
:101C600000E000200249086010BD000000040040B0
:101C70009401234230B589B005460C46012102206B
:101C8000FFF786FB01210520FFF792FB4020ADF80E
:101C9000200018208DF8230003208DF8220008A9C9
:101CA0001348FFF73DF8ADF81850ADF81440002088
:101CB000ADF81A00ADF8160005A90E4800F08EF92F
:101CC0007020ADF804000120ADF806000220ADF848
:101CD0000C0001A9074800F0A1F80821054800F010
:101CE000E9F80121034800F00AF809B030BD00000E
:101CF0000008014000040040CA430282704721B13D
:101D0000028842F00102028004E002884FF6FE736E
:101D10001A400280704731B1B0F8442042F40042CA
:101D2000A0F8442005E0B0F84420C2F30E02A0F869
:101D3000442070470146088F704730B502460020A6
:101D400000230024158A05EA0103958905EA0104A8
:101D500013B10CB1012000E0002030BD70B5054684
:101D60000C46244885420ED0234885420BD0B5F15D
:101D7000804F08D02148854205D02148854202D0B5
:101D80002048854200D100E000BF208850B9238957
:101D9000A28861882846FFF71BFDE188284600F0ED
:101DA000F1F825E0208804280AD12389A2886188D7
:101DB0002846FFF74DFDE188284600F0ECF817E0D3
:101DC000208808280AD12389A28861882846FFF73D
:101DD0008BFDE188284600F0EBF809E02389A28812
:101DE00061882846FFF7C8FDE188284600F0E9F839
:101DF00070BD0000002C0140003401400004004090
:101E000000080040000C00401AB183890B43838115
:101E100002E083898B4383817047000070B5002402
:101E200000220023058C4FF6FE7635400584028C97
:101E30008388048B4FF68F752C40B51E2C400D887F
:101E40002C43751E2A400D892A434D882A43144D80
:101E5000A8420BD0134DA84208D0134DA84205D07C
:101E6000124DA84202D0124DA84213D14FF6F77579
:101E70002A404D892A434FF6FB752A408D882A4314
:101E80004FF6FF652B404FF6FF552B408D892B43B6
:101E9000CD892B4383800483CD888586028470BDE1
:101EA000002C01400034014000400140004401404A
:101EB000004801400A460021018B4FF6F773194094
:101EC0001143018370470A460021018C4FF6DF73EE
:101ED00019404FF6FF7303EA021319430184704758
:101EE00070B5002200230024058C4EF6FF763540A5
:101EF0000584038C8488828B48F6FF752A404FF650
:101F0000FF452A400D884FF6FF7606EA05252A434D
:101F10004DF6FF752B400D8906EA05352B434D889C
:101F200006EA05352B430B4DA84202D00A4DA842C4
:101F300008D14BF6FF752C408D894FF6FF7606EAE7
:101F400085152C4384808283CD88A0F8405003847B
:101F500070BD0000002C0140003401400A46002101
:101F6000818B4FF2FF7319404FF6FF7303EA022390
:101F700019438183704781867047A0F840107047ED
:101F800081847047028B4FF6F3731A400283028BF1
:101F90000A4302837047028B4FF2FF331A400283D9
:101FA000028B4FF6FF7303EA01231A430283704743
:101FB000828B4FF6F3731A408283828B0A438283AB
:101FC0007047828B4FF2FF331A408283828B4FF629
:101FD000FF7303EA01231A438283704700220288B9
:101FE0001D4B98420ED01D4B98420BD0B0F1804F44
:101FF00008D01B4B984205D01A4B984202D01A4B7E
:10200000984204D14FF68F731A404B881A43174BEE
:10201000984207D0164B984204D04FF6FF431A401F
:10202000CB881A4302808B8883850B8803850A4BF3
:1020300098420BD0094B984208D00E4B984205D0DD
:102040000D4B984202D00D4B984201D10B7A03867A
:102050000123838270470000002C014000340140BE
:102060000004004000080040000C00400010004048
:10207000001400400040014000440140004801407D
:1020800010B540F22551254800F0AFF8002843D0A4
:10209000224800F065F9C4B2412C02D10120204948
:1020A0000860422C02D102201D490860432C02D155
:1020B00003201B4908601B48008800F4004058BBFF
:1020C0001848008800F4804060B10A2C03D000203A
:1020D0001449088020E01348008840F4004011496A
:1020E000088019E00D2C06D10E48008840F480408D
:1020F0000C49088010E00B480088C0F30D000A4925
:102100000C5408480088401C06490880084600888E
:10211000C72801DD0020088010BD00000038014004
:1021200000000020380000206400002010B540F2BC
:1021300025511E4800F059F8002835D01B4800F002
:102140000FF9C4B2412C02D1012019490860422C78
:1021500002D1022016490860432C02D10320144901
:102160000860442C02D1042011490860452C02D19A
:1021700005200F490860462C02D101200D49086056
:10218000472C02D102200B490860482C02D10320C1
:1021900008490860492C02D10420064908604A2CED
:1021A00002D100200349086010BD00000048004033
:1021B000040000200800002021B1828942F400526E
:1021C000828104E082894DF6FF731A408281704754
:1021D00002460020B1F5007F00D100BF13880B40FC
:1021E0000BB1012000E00020704770B502460024CA
:1021F00000230025002040F66A16B14200D100BF3E
:10220000C1F3421501F01F03012606FA03F3012D65
:1022100002D19689334006E0022D02D1168A33405E
:1022200001E0968A33400C12012606FA04F416885F
:10223000344013B10CB1012000E0002070BDF0B5B6
:102240000346002400260025002040F66A17B94204
:1022500000D100BF1846C1F3421401F01F06012748
:1022600007FA06F5012C01D10C3004E0022C01D153
:10227000103000E014301AB107682F43076002E005
:102280000768AF430760F0BD2DE9F04786B005460B
:102290000E460024A24600BFA1460027B08900B127
:1022A00000BF2F462C8A4CF6FF700440F088044390
:1022B0002C82AC894EF6F3100440B0883189084373
:1022C000718908430443AC81AC8A4FF6FF40044057
:1022D000B0890443AC8201A8FFF78AF81F488742FF
:1022E00002D1DDF810A001E0DDF80CA0A88900F40F
:1022F000004040B10AEBCA0000EB0A103168490007
:10230000B0FBF1F807E00AEBCA0000EB0A103168F5
:102310008900B0FBF1F86420B8FBF0F0040120095B
:10232000642101FB1089A88900F4004040B13220EB
:1023300000EBC900B0FBF1F000F00700044308E037
:10234000322000EB09106421B0FBF1F000F00F0027
:1023500004432C8106B0BDE8F0870000003801403E
:1023600001468888C0F308007047C1F308028280E4
:10237000704700BFFEE70FB430B5C1B0054601ACF1
:1023800046A8009001A8009A459900F089F800201D
:1023900000900BE014F8011B2846FFF7E6FF00BF92
:1023A00040212846FFF714FF0028F9D020780028A4
:1023B000F0D14FF4807101A8FDF7BBFE41B030BCF5
:1023C0005DF814FB2DE9F04105462C464FF48041A1
:1023D0001248FEF782FD00261CE0274607F0800722
:1023E000802F04D139020D48FEF779FD04E04FF447
:1023F00000410A48FEF771FD6006040E4FF480416B
:102400000648FEF76CFD4FF480410448FEF765FD79
:10241000701CC6B2082EE0DBBDE8F0810010014060
:1024200010B50446FEF792FD7820FFF7CBFFFEF7CC
:10243000B9FD0020FFF7C6FFFEF7B4FD2046FFF709
:10244000C1FFFEF7AFFDFEF799FD10BD10B50446C4
:10245000FEF77CFD7820FFF7B5FFFEF7A3FD4020D7
:10246000FFF7B0FFFEF79EFD2046FFF7ABFFFEF73C
:1024700099FDFEF783FD10BD0FB4084B10B504A9FC
:1024800002AA039800F0F0F8044602A9002000F028
:1024900082FC204610BC5DF814FB0000972D00085C
:1024A00037B514460846064B6A46214600F0DCF86C
:1024B00004466946002000F06EFC20463EBD000048
:1024C000972D000802E008C8121F08C1002AFAD19F
:1024D00070477047002001E001C1121F002AFBD1A4
:1024E000704700002DE9FF5F82B00021DDE9043074
:1024F000020DDDF840B0034318D044F61050A2F2AC
:10250000FF3242431514119801281FD0A5EB0B0090
:10251000401C5FEA000A4FF000064E4FDFF838918A
:10252000B046504615D5CAF1000413E011980124B5
:102530004AA3012801D16FEA0B010298119AC0E960
:102540000031C0E9024206B0BDE8F09FCBF10000C7
:10255000DFE704460021404A491842EB0450CDE928
:10256000001012E0E00707D032463B46404649469D
:10257000FDF71CFE8046894632463B46104619460A
:10258000FDF714FE06460F466410002CEAD1DDE983
:102590000401DDE90023BAF1000F06DAFDF706FEBB
:1025A00042464B46FDF702FE05E0FDF771FE42464E
:1025B0004B46FDF76DFE04460E460022284BFEF703
:1025C000E5F803D84FF0FF30014607E00022254B25
:1025D00020463146FEF71AF8FEF7BFF8102409E04E
:1025E000002C0ADB0A220023FDF73BFF039B30325D
:1025F0001A55641E50EA0102F2D1641C039AC4F118
:1026000011031444119A012A03D0012208430DD169
:102610000AE0084304D000204FF0110B119072E73C
:10262000A3EB0B056D1E0DE05B4504DD4FF00002D2
:1026300005F1010504E003DA4FF00002A5F1010500
:10264000002AECD002981199C0E90231C0E9004596
:1026500079E70000000014400000F03F3000000067
:102660000000F0430000E03F2DE9FF4F95B09B468E
:102670008946064600250FE2252877D10024274603
:10268000F84A0121059400E0044316F8013F203B7D
:1026900001FA03F01042F7D130782A2811D06FF0F8
:1026A0002F033078A0F13002092A16D8059A44F099
:1026B000020402EB820203EB42021044761C0590F6
:1026C000EFE759F8042B0592002A03DA504244F44C
:1026D0000054059044F00204761C30782E2816D160
:1026E00016F8010F44F004042A280DD06FF02F02D1
:1026F0003078A0F13003092B09D807EB870302EBF0
:102700004303C718761CF3E759F8047B761C30782E
:102710006C280FD006DC4C2817D068280DD06A280A
:1027200014D104E0742810D07A280FD10DE044F4BD
:1027300000140AE044F4801401E044F44014727878
:10274000824202D104F58014761C761C307866280B
:102750000BD013DC582877D009DC002875D0452829
:10276000F6D04628F4D047281AD19DE118E0632816
:1027700035D0642879D0652812D195E1702873D0BE
:1027800008DC6728F1D069286FD06E280DD06F283B
:1027900006D1B5E073282CD0752875D0782874D070
:1027A0005A46179990476D1C75E1C4F302500228F0
:1027B00009D003280DD0D9F8001004280DD00D60E1
:1027C00009F1040967E1D9F80010EA17C1E90052DC
:1027D000F6E7D9F800100D80F2E70D70F0E719F870
:1027E000041B8DF8001000208DF80100EA4601203E
:1027F00003E059F804AB4FF0FF3061074FF00001E0
:1028000002D40DE008F101018846B9420FDA804593
:10281000F8DB1AF808100029F4D108E008F10101EA
:1028200088468142FADB1AF808100029F6D105988B
:102830005B46A0EB080721463846179A00F094FA49
:10284000284400EB080507E04DE029E10DE01AF807
:10285000010B5A4617999047B8F10108F7D25B4629
:1028600021463846179A13E142E00A220092C4F347
:1028700002524FF0000A022A08D059F804CB032A6A
:102880004FEAEC710AD00DE029E02AE009F10701D6
:1028900021F00702F2E802C1914609E00FFA8CFC30
:1028A0004FEAEC71042A03D14FFA8CFC4FEAEC7129
:1028B000002907DA0A460021DCF1000C61EB020175
:1028C0002D2202E0220504D52B228DF804200122BE
:1028D00003E0E20701D02022F7E7904659E00A2101
:1028E00002E010220DE010214FF0000A00910BE0F1
:1028F00010224FF0000A44F004040827009203E07D
:1029000008224FF0000A0092C4F30252022A05D0B6
:1029100059F804CB0021032A08D009E009F1070186
:1029200021F00702F2E802C1914605E01FFA8CFC93
:10293000042A01D10CF0FF0C4FF00008220728D523
:10294000702806D0009B83F0100353EA0A0305D0D9
:102950000EE040228DF80420012208E05CEA01022A
:1029600006D030228DF804208DF805000222904612
:10297000009B83F0080353EA0A030AD15CEA0102D0
:1029800001D1620705D530228DF804204FF00108EF
:102990007F1E582804D034A003900EA802900DE0AA
:1029A00036A0F9E753466046009AFDF75AFD844683
:1029B0000398825C0298401E029002705CEA01005B
:1029C000F0D1029806A9081A00F1200A600702D582
:1029D00024F4803400E00127574502DDA7EB0A000C
:1029E00000E0002000EB0A01009005984144401AE5
:1029F0000590E00306D45B462146179A059800F03F
:102A0000B3F90544002706E001A85A46C05D1799AE
:102A100090476D1C7F1C4745F6DBE0030CD55B46F9
:102A20002146179A059800F09FF9054404E03020EC
:102A30005A46179990476D1C0099481E009000292E
:102A4000F5DC08E0029802995A460078491C029188
:102A5000179990476D1CBAF10001AAF1010AF1DC47
:102A600065E1000009280100303132333435363752
:102A700038396162636465660000000030313233CA
:102A8000343536373839414243444546000000006A
:102A900000F058F90544761C307800287FF4ECAD3E
:102AA00019B02846BDE8F08F620700D4062709F167
:102AB000070222F0070CFCE80223E14603F000487D
:102AC0005FEA080C02D00FF2702C0DE05FEA045CA4
:102AD00002D50FF2682C07E05FEAC47C02D00FF247
:102AE000602C01E0AFF2700C4FF0FF3823F0004390
:102AF000CDF850C065280CD006DC452809D0462802
:102B00001DD047283DD13DE0662818D067287ED1EA
:102B100038E00021112F01DB112000E0781CCDE905
:102B2000000106A90EA8FFF7DDFCDDE90F010E9AF2
:102B300003910021009207F1010A04914DE04FF04A
:102B400000400097CDE9011006A90EA8FFF7CAFCC6
:102B5000DDE90F0203920E9B11990022DDF80CA013
:102B60000093049211B9791C00EB010AB7EB0A003B
:102B700004D4C0F1FF3007F1010A0490AAEB07006A
:102B8000019044E0012F00DA01270021112F01DD1F
:102B9000112000E03846CDE9000106A90EA8FFF794
:102BA000A1FCDDE90F010E9A03910021049100922E
:102BB000BA4621070CD40399514500DA8A46BAF186
:102BC000010F05DD009AAAF10101515C302908D0FE
:102BD000B84202DA10F1040F06DA0121CDE9011042
:102BE00015E0AAF10101E9E7002805DC0499014498
:102BF0000491AAEB000102E0411C514500DD8A4628
:102C00000499401A401C01904FF0004002902007A8
:102C100004D40198504501DBCDF8048000208DF8E4
:102C20004F0002980DF14F07B0F1004F25D02B2037
:102C30000E9002984FF0020800280CDA40420290F1
:102C40002D200E9007E00A210298FDF7F4FB3031A9
:102C5000029007F8011DB8F10001A8F10108F2DCAB
:102C600002980028EFD1791E0E980870307800F095
:102C7000200040F0450007F8020D12A8C01B00F12B
:102C800007081498007800B1012000EB0A010198B0
:102C900001EBE07105984144401A401E0590E003A5
:102CA00006D45B462146179A059800F05DF8054466
:102CB0001498007818B15A46179990476D1CE00394
:102CC00024D55B462146179A059800F04DF8054437
:102CD0001CE00498002807DBDDE90301884203DDDE
:102CE0000098405C179901E0179930205A469047A8
:102CF000049805F10105401C04900198401E0190C4
:102D000004D12E205A46179990476D1CBAF1000144
:102D1000AAF1010ADDDC05E017F8010B5A46179904
:102D200090476D1CB8F10001A8F10108F4DC5B4686
:102D30002146179A0598ABE62D0000002B000000F5
:102D4000200000002DE9F041044600251E461746EC
:102D5000880404D405E039462020B0476D1C641E69
:102D6000F9D52846BDE8F0812DE9F041044600255B
:102D70001E469046C80301D5302700E0202788046E
:102D800004D505E041463846B0476D1C641EF9D5B0
:102D90002846BDE8F0810A68531C0B60107070472C
:102DA00010B56FF00400FEF78BFC0A4800680A4972
:102DB000B0FBF1F0094908700846007800EB4001CB
:102DC000C1EBC0104FF6FF7101EAC0000449088052
:102DD00010BD00001800002000127A003000002012
:102DE000320000200146114A12884A434FF0E02386
:102DF0005A6100229A611A46126942F001021A6170
:102E000000BF4FF0E022106900F001021AB100F497
:102E10008032002AF5D04FF0E022126922F0010240
:102E20004FF0E0231A6100229A61704732000020BF
:102E30000146114A12784A434FF0E0235A610022BA
:102E40009A611A46126942F001021A6100BF4FF0FE
:102E5000E022106900F001021AB100F48032002A69
:102E6000F5D04FF0E022126922F001024FF0E0238A
:102E70001A6100229A617047300000204FF4A06070
:102E8000FEF734F9FFF78CFF4FF4E13000F0C2FA9F
:102E90004FF4E13000F06AFAFEF7B0F8FEF756FCA6
:102EA000FDF76AFEFEF76EFCFEF74AF9FEF728F919
:102EB000FEF776FBFDF7AAFD40F29F5140F2E730A6
:102EC000FEF7D8FE40F2671140F2CF70FEF7A0FD8A
:102ED0004FF4FA71FE48FFF74EF84FF4FA71FC48D0
:102EE000FFF74BF847214FF6FF70FEF7F7FD39E289
:102EF0000A210420FEF710F881464846FDF737FA0C
:102F00008246FDF769FA07464FF06632F14BFDF74E
:102F10004DF90546FDF773FA0446EF492046FDF7E3
:102F200013F90746FDF758FA05462A460B46EBA16A
:102F3000ED48FFF7A1FA1023EB4A00210C20FEF721
:102F4000F1F9FEF7DFFA05462A46E8A1E648FFF761
:102F500093FA1023E44A03210C20FEF7E3F9E64834
:102F6000E6A10268E048FFF787FA1023DE4A06214F
:102F70000C20FEF7D7F9E048E3A10268E548FFF727
:102F8000FAF9D5492046FDF7DFF80746FDF724FAA0
:102F900005462A460B46E0A1DE48FFF7ECF9FEF7AE
:102FA000B1FA05462A46DFA1DA48FFF7E4F9D2482C
:102FB000006890B95021DD48FEF7DDFFC820FFF71B
:102FC00011FF0020DA490860DA49C1F8B001D84998
:102FD00030390860D749C1F88001C7480068032824
:102FE00044D15021D148FEF7C6FFC820FFF7FAFEB2
:102FF000FEF788FA192805DDFDF750FE4FF4FA7048
:10300000FFF7F0FEFEF77EFA19282FDA3221C748C3
:10301000FEF7B1FFC820FFF7E5FEFEF773FA1928A7
:1030200006DDFEF74FFA4FF42F70FFF7DBFE1DE0D1
:103030006E21BE48FEF79FFFC820FFF7D3FEFEF7C4
:1030400061FA192806DDFDF7F5FF4FF42F70FFF741
:10305000C9FE0BE0FDF720FD4FF42F70FFF7C2FE15
:10306000FEF730FA4FF42F70FFF7BCFEA24800685D
:1030700001281DD1FEF746FA142804DDFDF70EFEE7
:103080003220FFF7AFFEFEF73DFA0F2804DAFDF716
:1030900003FD3220FFF7A6FE0020A5490860A549E0
:1030A000C1F8B001A24930390860A249C1F88001D5
:1030B00091480068022850D19F480068052810D127
:1030C0009E480068C0439E49C1F8B4010020984959
:1030D0000860091F08609649303908609549C1F8B1
:1030E00080019548006801280AD194480068C043CF
:1030F0009349C1F8B401FDF7D1FD6420FFF772FEDA
:103100008D48006802280AD18C480068C0438C4969
:10311000C1F8B401FDF7C0FC6420FFF763FE8648E8
:10312000006803280AD185480068C0438449C1F873
:10313000B401FEF7C7F96420FFF754FE7E4800682B
:1031400004280AD17D480068C0437D49C1F8B40114
:10315000FDF770FF6420FFF745FE6748006804280C
:103160007ED120217748FDF7AFFEA0B91021754828
:10317000FDF7AAFE78B908217248FDF7A5FE50B9FF
:103180004FF400417048FDF79FFE20B9FDF786FD22
:103190003220FFF727FE20216A48FDF795FEA8B9E7
:1031A00010216848FDF790FE01280FD108216548DD
:1031B000FDF78AFE50B94FF400416348FDF784FEE5
:1031C00020B9FEF77FF99620FFF70CFE20215D481D
:1031D000FDF77AFE012814D110215A48FDF774FE3C
:1031E00078B908215748FDF76FFE50B94FF40041F8
:1031F0005548FDF769FE20B9FEF764F9FA20FFF79C
:10320000F1FD20214F48FDF75FFE012816D1102166
:103210004C48FDF759FE012810D108214948FDF717
:1032200053FE58B94FF400414748FDF74DFE28B909
:10323000FEF748F94FF49670FFF7D4FD202141487E
:10324000FDF742FEB0B910213E48FDF73DFE88B9BA
:1032500008213C48FDF738FE01280BD1C10300E0EE
:1032600034E03948FDF730FE20B9FDF7E3FE962043
:10327000FFF7B8FD20213348FDF726FEA8B910213D
:103280003048FDF721FE80B908212E48FDF71CFECD
:1032900058B94FF400412C48FDF716FE012804D11F
:1032A000FDF7C8FEFA20FFF79DFD20212548FDF718
:1032B0000BFE58B910212348FDF706FE30B908214E
:1032C0002048FDF701FE01284CD13FE04AE0000014
:1032D000002C014066664A3F0000A040553A252E6A
:1032E000326620202000000050000020443A25646F
:1032F0002020202020200000080000204D6F646561
:103300003A256420202000004D6F64653A25640D45
:103310000A00000000480040553A252E32660D0A8A
:1033200000000000443A2564200D0A00000400401B
:10333000B48121420080214204000020B4012242D5
:1033400000002242000C014000080140C103064871
:10335000FDF7BAFD012805D1FDF76CFE4FF496701C
:10336000FFF740FDC4E500000008014010B586B03D
:10337000044601218804FEF70BF801210820FEF71E
:1033800017F84FF48060ADF8140003208DF8160094
:1033900018208DF8170005A91C48FDF7C1FC4FF453
:1033A0000060ADF8140004208DF8170005A9174837
:1033B000FDF7B6FC27208DF8000003208DF80100F2
:1033C0008DF8020001208DF803006846FDF756FED7
:1033D00001940020ADF80800ADF80A00ADF80C002B
:1033E000ADF810000C20ADF80E0001A90848FEF75A
:1033F0004BFF012240F225510548FEF720FF012135
:103400000348FEF7D9FE06B010BD0000000C0140D5
:103410000048004010B586B00446012144F2040083
:10342000FDF7C6FF4FF40070ADF8140003208DF8CF
:10343000160018208DF8170005A91C48FDF770FC30
:103440004FF48060ADF8140004208DF8170005A932
:103450001648FDF765FC25208DF8000003208DF847
:1034600001008DF8020001208DF803006846FDF789
:1034700005FE01940020ADF80800ADF80A00ADF893
:103480000C00ADF810000C20ADF80E0001A90848A2
:10349000FEF7FAFE012240F225510548FEF7CFFE65
:1034A00001210348FEF788FE06B010BD0008014068
:1034B000003801400000000000000000002F000064
:1034C00000000700070000147F147F1400242A7FE7
:1034D0002A12006264081323003649552250000066
:1034E0000503000000001C224100000041221C00D6
:1034F0000014083E08140008083E0808000000A058
:103500006000000808080808000060600000002053
:1035100010080402003E5149453E0000427F400031
:10352000004261514946002141454B3100181412B7
:103530007F10002745454539003C4A494930000184
:103540007109050300364949493600064949291ED3
:103550000000363600000000563600000008142235
:103560004100001414141414000041221408000235
:103570000151090600324959513E007C1211127C5A
:10358000007F49494936003E41414122007F414187
:10359000221C007F49494941007F09090901003E79
:1035A0004149497A007F0808087F0000417F4100B7
:1035B000002040413F01007F08142241007F40402D
:1035C0004040007F020C027F007F0408107F003E15
:1035D0004141413E007F09090906003E4151215EFB
:1035E000007F091929460046494949310001017FF8
:1035F0000101003F4040403F001F2040201F003F8E
:103600004038403F0063140814630007087008073F
:1036100000615149454300007F41410000552A5552
:103620002A55000041417F000004020102040040CD
:1036300040404040000001020400002054545478EF
:10364000007F48444438003844444420003844440F
:10365000487F00385454541800087E0901020018AD
:10366000A4A4A47C007F080404780000447D4000EA
:10367000004080847D00007F102844000000417FCE
:103680004000007C04180478007C080404780038AA
:103690004444443800FC242424180018242418FC32
:1036A000007C0804040800485454542000043F449B
:1036B0004020003C4040207C001C2040201C003C5E
:1036C0004030403C004428102844001CA0A0A07CAE
:1036D000004464544C4414141414141400000000E6
:1036E000000000000000000000000000000000F8E2
:1036F00000000000000000333000000000100C0645
:10370000100C0600000000000000000040C07840DF
:10371000C0784000043F04043F040400007088FCAB
:1037200008300000001820FF211E0000F008F00003
:10373000E018000000211C031E211E0000F0088874
:10374000700000001E2123241927211010160E00DE
:10375000000000000000000000000000000000E089
:10376000180402000000000718204000000204189E
:10377000E00000000040201807000000404080F0FA
:10378000804040000202010F01020200000000F030
:10379000000000000101011F010101000000000004
:1037A0000000000080B07000000000000000000079
:1037B0000000000000010101010101010000000002
:1037C0000000000000303000000000000000000099
:1037D00080601804006018060100000000E0100876
:1037E0000810E000000F102020100F00001010F84B
:1037F000000000000020203F20200000007008088A
:103800000888700000302824222130000030088809
:10381000884830000018202020110E000000C02031
:1038200010F8000000070424243F240000F8088852
:10383000880808000019212020110E0000E01088DF
:1038400088180000000F112020110E000038080811
:10385000C83808000000003F000000000070880821
:1038600008887000001C222121221C0000E01008A2
:103870000810E0000000312222110F00000000C0FB
:10388000C000000000000030300000000000008098
:103890000000000000008060000000000000804088
:1038A00020100800000102040810200040404040A1
:1038B00040404000040404040404040000081020F4
:1038C0004080000000201008040201000070480839
:1038D0000808F0000000003036010000C030C828A1
:1038E000E810E0000718272423140B000000C0385C
:1038F000E0000000203C23020227382008F88888D6
:1039000088700000203F202020110E00C0300808E1
:1039100008083800071820202010080008F80808B8
:103920000810E000203F202020100F0008F88888B1
:10393000E8081000203F20202320180008F888887D
:10394000E8081000203F200003000000C0300808F5
:103950000838000007182020221E020008F808007E
:103960000008F808203F210101213F20000808F845
:10397000080800000020203F202000000000080868
:10398000F8080800C08080807F00000008F888C028
:1039900028180800203F20012638200008F80800D9
:1039A00000000000203F20202020300008F8F80010
:1039B000F8F80800203F003F003F200008F830C022
:1039C0000008F808203F200007183F00E010080812
:1039D0000810E0000F10202020100F0008F8080841
:1039E0000808F000203F210101010000E010080854
:1039F0000810E0000F18242438504F0008F8888879
:103A000088887000203F2000030C30200070880858
:103A1000080838000038202121221C00180808F866
:103A2000080818000000203F2000000008F80800E7
:103A30000008F808001F202020201F0008788800B8
:103A400000C83808000007380E010000F80800F828
:103A50000008F800033C0700073C030008186880D2
:103A60008068180820302C03032C30200838C80048
:103A7000C83808000000203F200000001008080897
:103A8000C83808002038262120201800000000FE39
:103A9000020202000000007F40404000000C30C0E5
:103AA00000000000000000010638C0000002020211
:103AB000FE000000004040407F00000000000402C3
:103AC00002020400000000000000000000000000EE
:103AD00000000000808080808080808000020204DE
:103AE00000000000000000000000000000008080D6
:103AF000808000000019242222223F2008F8008044
:103B000080000000003F112020110E000000008006
:103B100080800000000E1120202011000000008095
:103B20008088F800000E112020103F2000008080C7
:103B300080800000001F222222221300008080F0DB
:103B4000888888180020203F202000000000808006
:103B500080808000006B94949493600008F800804B
:103B600080800000203F210000203F2000809898A6
:103B7000000000000020203F202000000000008006
:103B80009898000000C08080807F000008F8000046
:103B900080808000203F24022D302000000808F89B
:103BA000000000000020203F202000008080808056
:103BB00080808000203F20003F20003F80800080E8
:103BC00080800000203F210000203F2000008080F6
:103BD00080800000001F202020201F0080800080A7
:103BE0008000000080FFA12020110E000000008056
:103BF00080808000000E112020A0FF808080800047
:103C00008080800020203F21200001000000808073
:103C1000808080000033242424241900008080E068
:103C2000808000000000001F202000008080000035
:103C300000808000001F202020103F208080800016
:103C40000080808000010E30080601008080008026
:103C5000008080800F300C030C300F00008080004B
:103C6000808080000020312E0E3120008080800076
:103C70000080808080818E70180601000080808026
:103C8000808080000021302C2221300000000000C4
:103C9000807C020200000000003F40400000000065
:103CA000FF00000000000000FF0000000002027C96
:103CB000800000000040403F0000000000060101BD
:103CC000020204040000000000000000EC3C0008B8
:103CD0000000002050000000C42400083C3D000803
:103CE00050000020E0040000D42400080000000080
:103CF00000000000000000009A99993F00000000B9
:103D00000000000000A24A040000000000000000C3
:103D1000010203040607080900000000000000007B
:103D20000000000000000000000001020304010286
:0C3D30000304060708090204060800004E
:0400000508000101ED
:00000001FF
